:100000000C9462000C948A000C948A000C948A0070
:100010000C948A000C948A000C948A000C948A0038
:100020000C948A000C948A000C948A000C9493031C
:100030000C948A000C948A000C948A000C948A0018
:100040000C9449030C948A000C9417030C94F1024D
:100050000C948A000C948A000C948A000C948A00F8
:100060000C948A000C948A000000000024002700F1
:100070002A0000000000250028002B0000000000DE
:1000800023002600290004040404040404040202DA
:100090000202020203030303030301020408102007
:1000A0004080010204081020010204081020000012
:1000B0000008000201000003040700000000000027
:1000C00000004F0411241FBECFEFD8E0DEBFCDBF2C
:1000D00011E0A0E0B1E0ECEDFCE002C005900D9273
:1000E000AA31B107D9F721E0AAE1B1E001C01D9220
:1000F000A93EB207E1F710E0C2E6D0E004C02197C4
:10010000FE010E946606C136D107C9F70E94AC0401
:100110000C946C060C9400008F929F92AF92BF9249
:10012000FF920F931F93CF93DF93F090E6012BE0A4
:100130002F1508F44CC02091E80108E512E0021BDD
:10014000110927FD1395000F111F000F111F20919A
:10015000E701C8E8D0E0C21BD10927FDD395CC0F39
:10016000DD1FCC0FDD1F4E010D2E000CAA08BB08B1
:100170009801012E000C440B550B281939094A0926
:100180005B09DC010E94210624EB30E040E050E0F6
:100190000E94F705820E931EA41EB51E8C169D06A6
:1001A0002CF0E801801691060CF4E4012297CC0FA4
:1001B000DD1F2FB7F8948F2D90E0FC01EE0FFF1F8D
:1001C000E80FF91FEF53FE4FD283C1832FBFDF919A
:1001D000CF911F910F91FF90BF90AF909F908F9004
:1001E0000895AF92BF92CF92DF92EF92FF920F935A
:1001F0001F93CF93DF936C017B018B01040F151FBD
:10020000EB015E01AE18BF08C017D10759F0699124
:10021000D601ED91FC910190F081E02DC601099588
:10022000892B79F7C501DF91CF911F910F91FF9035
:10023000EF90DF90CF90BF90AF900895FC01538D69
:10024000448D252F30E0842F90E0821B930B5417B0
:1002500010F0CF96089501970895FC01918D828D3D
:10026000981761F0A28DAE0FBF2FB11D5D968C91D6
:10027000928D9F5F9F73928F90E008958FEF9FEF15
:100280000895FC01918D828D981731F0828DE80FD1
:10029000F11D858D90E008958FEF9FEF0895FC018B
:1002A000918D228D892F90E0805C9F4F821B910958
:1002B0008F739927089584E291E00E944F0121E015
:1002C000892B09F420E0822F089580E090E0892BAB
:1002D00029F00E945B0181110C9400000895FC013B
:1002E000A48DA80FB92FB11DA35ABF4F2C91848D97
:1002F00090E001968F739927848FA689B7892C93F4
:10030000A089B1898C91837080648C93938D848D46
:10031000981306C00288F389E02D80818F7D808349
:100320000895EF92FF920F931F93CF93DF93EC0109
:1003300081E0888F9B8D8C8D98131AC0E889F9898C
:10034000808185FF15C09FB7F894EE89FF8960838F
:10035000E889F98980818370806480839FBF81E010
:1003600090E0DF91CF911F910F91FF90EF90089552
:10037000F62E0B8D10E00F5F1F4F0F731127E02E2D
:100380008C8D8E110CC00FB607FCFACFE889F98965
:10039000808185FFF5CFCE010E946F01F1CFEB8DFB
:1003A000EC0FFD2FF11DE35AFF4FF0829FB7F89439
:1003B0000B8FEA89FB8980818062CFCFCF93DF9357
:1003C000EC01888D8823B9F0AA89BB89E889F9896D
:1003D0008C9185FD03C0808186FD0DC00FB607FCA2
:1003E000F7CF8C9185FFF2CF808185FFEDCFCE01D5
:1003F0000E946F01E9CFDF91CF910895833081F0A2
:1004000028F4813099F08230A9F008958730A9F05E
:100410008830C9F08430B1F4809180008F7D03C0B2
:10042000809180008F7780938000089584B58F77C6
:1004300084BD089584B58F7DFBCF8091B0008F7708
:100440008093B00008958091B0008F7DF9CFCF9355
:10045000DF93282F30E0F901E255FF4F8491F90135
:10046000E656FF4FD491F901EA57FF4FC491CC23D0
:10047000A1F081110E94FE01EC2FF0E0EE0FFF1FB2
:10048000E458FF4FA591B491EC91ED2381E090E009
:1004900009F480E0DF91CF91089580E090E0FACFF9
:1004A0001F93CF93DF93282F30E0F901E255FF4FE0
:1004B0008491F901E656FF4FD491F901EA57FF4FB5
:1004C000C491CC23A9F0162F81110E94FE01EC2FBC
:1004D000F0E0EE0FFF1FEE58FF4FA591B4918FB7DC
:1004E000F894EC91111108C0D095DE23DC938FBFF6
:1004F000DF91CF911F910895DE2BF8CFCF93DF933B
:1005000090E0FC01E656FF4F24918A579F4FFC0173
:1005100084918823D1F090E0880F991FFC01E8595D
:10052000FF4FA591B491FC01EE58FF4FC591D491B6
:1005300061110EC09FB7F8948C91E22FE0958E2345
:100540008C932881E223E8839FBFDF91CF910895A8
:100550008FB7F894EC91E22BEC938FBFF6CF3FB7B7
:10056000F8948091200190912101A0912201B091F5
:10057000230126B5A89B05C02F3F19F00196A11DA8
:10058000B11D3FBFBA2FA92F982F8827BC01CD01DD
:10059000620F711D811D911D42E0660F771F881F3C
:1005A000991F4A95D1F70895CF93DF93FC010190ED
:1005B0000020E9F73197AF01481B590BBC0184E2D9
:1005C00091E00E94F100EC0142E050E062E171E054
:1005D00084E291E00E94F1008C0F9D1FDF91CF918A
:1005E00008951F920F920FB60F9211242F933F93ED
:1005F0004F935F936F937F938F939F93AF93BF932B
:10060000EF93FF9384E291E00E946F01FF91EF91DD
:10061000BF91AF919F918F917F916F915F914F911A
:100620003F912F910F900FBE0F901F9018951F9222
:100630000F920FB60F9211242F938F939F93EF93E6
:10064000FF93E0913401F09135018081E0913A010E
:10065000F0913B0182FD1BC0908180913D018F5F35
:100660008F7320913E01821741F0E0913D01F0E04F
:10067000EC5DFE4F958F80933D01FF91EF919F912F
:100680008F912F910F900FBE0F901F901895808122
:10069000F4CF1F920F920FB60F9211242F933F9316
:1006A0008F939F93AF93BF9380911C0190911D01F5
:1006B000A0911E01B0911F0130911B0123E0230F77
:1006C0002D3758F50196A11DB11D20931B01809374
:1006D0001C0190931D01A0931E01B0931F018091F6
:1006E000200190912101A0912201B0912301019656
:1006F000A11DB11D8093200190932101A09322019F
:10070000B0932301BF91AF919F918F913F912F9112
:100710000F900FBE0F901F90189526E8230F02969A
:10072000A11DB11DD2CF1F920F920FB60F921124AF
:100730002F933F934F935F936F937F938F939F93E9
:10074000AF93BF93CF93DF93EF93FF9380911A0101
:10075000C091E501D0E087FF24C01092850010927F
:10076000840080911A018F5F80931A0180911A0191
:10077000082E000C990B8C179D0724F480911A0108
:100780008C30C4F18091840090918500049680346F
:100790009C4908F47AC08091840090918500049669
:1007A00076C080911A01082E000C990B8C179D07BA
:1007B000C4F6E0911A018E2FEE0F990BFC01EE0F9B
:1007C000FF1FE80FF91FEF53FE4F808186FFC9CF4F
:1007D000E0911A018E2FEE0F990BFC01EE0FFF1F17
:1007E000E80FF91FEF53FE4F808160E08F730E9486
:1007F0005002B7CF2091840030918500E0911A011A
:100800008E2FEE0F990BFC01EE0FFF1FE80FF91F63
:10081000EF53FE4F81819281820F931F9093890045
:1008200080938800E0911A018E2FEE0F990BFC0146
:10083000EE0FFF1FE80FF91FEF53FE4F808186FF79
:1008400011C0E0911A018E2FEE0F990BFC01EE0FF3
:10085000FF1FE80FF91FEF53FE4F808161E08F7398
:100860000E945002FF91EF91DF91CF91BF91AF9124
:100870009F918F917F916F915F914F913F912F91B8
:100880000F900FBE0F901F90189580E49CE99093F5
:100890008900809388008FEF80931A01E3CF109234
:1008A00027011092260188EE93E0A0E0B0E080934B
:1008B000280190932901A0932A01B0932B0184E091
:1008C00091E0909325018093240185EC90E0909332
:1008D00031018093300184EC90E090933301809358
:1008E000320180EC90E0909335018093340181ECEB
:1008F00090E0909337018093360182EC90E09093E2
:1009000039018093380186EC90E090933B0180930D
:100910003A0110923D0110923E0110923F01109257
:1009200040018091E5018C3098F491E0980F90930C
:10093000E5018093E60190E0FC01EE0FFF1FE80F58
:10094000F91FEF53FE4F88EB9BE09283818308955C
:100950008FEF8093E6010895789484B5826084BD1A
:1009600084B5816084BD85B5826085BD85B58160B3
:1009700085BD80916E00816080936E001092810031
:1009800080918100826080938100809181008160EC
:1009900080938100809180008160809380008091AD
:1009A000B10084608093B1008091B0008160809339
:1009B000B00080917A00846080937A0080917A0000
:1009C000826080937A0080917A00816080937A00BF
:1009D00080917A00806880937A001092C10060E074
:1009E0008AE00E947E0260E089E00E947E0261E06F
:1009F00086E00E947E0261E087E00E947E0261E064
:100A00008DE00E947E02E0913401F091350182E098
:100A10008083E0913001F09131011082E091320148
:100A2000F09133018FEC808310923C01E09138010A
:100A3000F091390186E08083E0913601F091370131
:100A4000808180618083E0913601F091370180815F
:100A500088608083E0913601F09137018081806861
:100A60008083E0913601F091370180818F7D808312
:100A70008091E6018C3008F051C061E088E00E946E
:100A80007E028091E601282F30E0F901EE0FFF1F72
:100A9000E20FF31FEF53FE4F9081907C986090839C
:100AA0001092E7011092E8012CE0622F0E945A0692
:100AB000829FB001112430E020E0AB01420F531FB0
:100AC000FA01EE0FFF1FE40FF51FEF53FE4F908169
:100AD00096FD16C02F5F3F4F2C30310571F7811105
:100AE0000FC01092800082E08093810010928500F8
:100AF00010928400B19A80916F00826080936F00A1
:100B0000E091E6018E2F90E0FC01EE0FFF1FE80F51
:100B1000F91FEF53FE4F80818064808390E080E076
:100B20000E948C00C0E0D0E08AE00E9427027C0195
:100B300089E00E942702019721F0EA94EF2809F04A
:100B400043C085E191E00E94D40261E086E00E940A
:100B5000500261E08DE00E94500260E087E00E9458
:100B6000500284EB90E00E948C000E94AF024B0187
:100B70005C0184E6C82ED12CE12CF12C0E94AF023E
:100B8000681979098A099B09683E734081059105B6
:100B9000A8F381E0C81AD108E108F10828EE820E16
:100BA00023E0921EA11CB11CC114D104E104F10484
:100BB00029F7209709F4B8CF0E945B01882309F434
:100BC000B3CF0E940000B0CF87E191E00E94D40231
:100BD00060E086E00E94500261E087E00E945002DF
:100BE00060E08DE00E94500290E080E0BCCF052ED6
:100BF00097FB1EF400940E940E0657FD07D00E943A
:100C0000290607FC03D04EF40C940E06509540952F
:100C1000309521953F4F4F4F5F4F089590958095A8
:100C2000709561957F4F8F4F9F4F08950E944B069F
:100C3000A59F900DB49F900DA49F800D911D112430
:100C40000895B7FF0C9416060E941606821B930B9C
:100C50000895A1E21A2EAA1BBB1BFD010DC0AA1FFD
:100C6000BB1FEE1FFF1FA217B307E407F50720F015
:100C7000A21BB30BE40BF50B661F771F881F991F90
:100C80001A9469F760957095809590959B01AC01D9
:100C9000BD01CF010895A29FB001B39FC001A39FE2
:100CA000700D811D1124911DB29F700D811D1124A5
:100CB000911D0895991B79E004C0991F961708F0BB
:100CC000961B881F7A95C9F780950895EE0FFF1F30
:0C0CD0000590F491E02D0994F894FFCFFA
:100CDC00000000009101F1001E01DE014F012D0109
:0A0CEC0041010D0A00310030000044
:00000001FF
